:020000040800F2
:10000000780F002045010008111900087117000839
:100010007D180008850D0008A324000800000000DA
:100020000000000000000000000000005D1B000850
:10003000690F00080000000099190008711C0008F1
:100040005F0100085F0100085F0100085F01000810
:100050005F0100085F0100085F0100085F01000800
:100060005F0100085F0100085F0100085F010008F0
:100070005F0100085F0100085F0100085F010008E0
:100080005F0100085F0100085F0100085F010008D0
:100090005F0100085F0100085F0100085F010008C0
:1000A0005F0100085F0100085F0100085F010008B0
:1000B0005F0100085F0100085F0100085F010008A0
:1000C0005F0100085F0100085F0100085F01000890
:1000D0005F010008491F00085F0100083521000882
:1000E0005F0100085F0100085F0100085F01000870
:1000F0005F0100085F0100085F0100085F01000860
:100100005F0100085F0100085F0100085F0100084F
:100110005F0100085F0100085F0100085F0100083F
:100120005F0100085F0100085F0100085F0100082F
:10013000DFF80CD000F012FC004800470D34000836
:10014000780F00200648804706480047FEE7FEE794
:10015000FEE7FEE7FEE7FEE7FEE7FEE7FEE7FEE777
:10016000B11C00083101000840EA01039B0703D0DD
:1001700009E008C9121F08C0042AFAD203E011F8E6
:10018000013B00F8013B521EF9D27047D2B201E0A8
:1001900000F8012B491EFBD270470022F6E710B58C
:1001A00013460A4604461946FFF7F0FF204610BDE5
:1001B00030B505462A460B4612F8010B13F8014BE1
:1001C00008B1A042F8D01CB1002802D06D1CF1E7A4
:1001D000284630BDCAB2401E10F8011F8A4202D024
:1001E0000029F9D100207047421C10F8011B00299A
:1001F000FBD1801A704710B5002200E0521C835CCE
:100200008C5CA34201D1002BF8D1D8B2E1B2401AE4
:1002100010BD30B505460020034600E05B1C93424C
:1002200005D2EC5CC85C201A01D1002CF6D130BD9F
:100230000FB400B58DB010A909900B9000914FF04C
:10024000FF300A9000200C90054806900548079062
:100250006A4609A80F9900F057FA0DB05DF814FB33
:1002600025070008430700082DE9FF5FD2E901A731
:100270004FF00008916999461446DDF838B04646BB
:1002800001988847054659EA0B0005D009E0A169A5
:10029000761C019888470546216A28468847002829
:1002A000F5D1681C03D05FEACA7005D015E04FF0A5
:1002B000FF3004B0BDE8F09F2068011D2160D0F838
:1002C00000800AE05FEACA7001D108F8015BA16909
:1002D000761C7F1E019888470546002F1ADD681C92
:1002E00018D0B9F1000F0DD0E81705EBD06042111E
:1002F00020F01F0059F822102A1A012090400142D4
:10030000E0D107E0BBF1000FDCD1216A2846884725
:100310000028D7D0E16901988847BBF1000F07D1C9
:10032000002E05DD5FEACA7002D1002188F80010B6
:10033000A068B84203DDBBF1000F03D017B16FF026
:100340000100B6E73046B4E72DE9FE4F804681EA6A
:100350000300C00F0C46009021F0004123F000453F
:10036000B8EB0200A94105D24046214690461C4602
:100370000B46024623F00040104347D0270DC7F339
:100380000A00C3F30A510290401A019040286BDA28
:10039000C3F3130040F4801B0098924620B1002361
:1003A000D2EB030A63EB0B0B01985946C0F14002F4
:1003B000504600F072F906460D4650465946019ADD
:1003C00000F08AF910EB08006141002487EA11521D
:1003D00084EAE7731A4340D0009A62B3019A012A73
:1003E0004FEA075215DC001B61EB02014FF000429F
:1003F00002EA0752CDE90042001C41F58011324665
:100400002B4600F0BEF903B0BDE8F08F4046214610
:10041000F9E7001B61EB0201001C41F58013001895
:100420005B412018A2F5001747EB030140EAD570A5
:10043000B6196D4111E06D084FEA360645EAC07500
:100440004FEA0752001B61EB0201001C41F58011CD
:1004500049084FEA30000019514132462B4603B09B
:10046000BDE8F04F00F07EB9009801224000002363
:10047000D0EB020263EBE073009821464FEAE07490
:10048000B8EB000061EB0401E9E783F000435BE7B0
:1004900081F0004158E72DE9FE4F81EA030404F0A2
:1004A000004421F0004100944FF0000B23F0004382
:1004B00050EA01045ED052EA03045BD0C3F30A544D
:1004C000C1F30A552C44A4F2F3340194A0FB025466
:1004D000C1F3130141F48011C3F3130343F48013F8
:1004E00001FB024400FB034E840A970A44EA81544C
:1004F00047EA8357A4FB076802958D0A05FB078529
:100500004FEA932C04FB0C542705029D4FEA065832
:1005100047EA1637B5EB08056EEB070C870E920E0F
:1005200047EA811742EA8312A7FB0201B6EB0B01EF
:1005300064EB00042B0D43EA0C335E1844EB1C50B3
:10054000DA465146E7FB0201C5F313044FEA0B33C9
:1005500043EA14534FEA0432019C43EA0603A4F130
:100560000C040294009CCDE900B400F00AF903B039
:10057000BDE8F08F00200146F9E70EB5C10F80EA13
:10058000E0700844CA07002140F233438DE80E00B2
:100590000A460B4600F0F5F803B000BD70B5C1F394
:1005A0000A5201F000450024C1F3130140F2FF3369
:1005B00041F480119A4201DA002070BD40F23343C9
:1005C0009A42A2F2334203DC524200F075F800E096
:1005D00090402C43F1D0404270BD000030B5041E65
:1005E00071F1000404DB4FF00044404264EB010170
:1005F000141E73F1000405DB1C464FF00043524209
:1006000063EB0403994208BF904230BD30B50B46FE
:10061000014600202022012409E021FA02F59D4232
:1006200005D303FA02F5491B04FA02F52844151E06
:10063000A2F10102F1DC30BD2DE9F05F054600209A
:1006400092469B4688460646814640241BE0284643
:1006500041464746224600F02FF853465A46C01AF4
:10066000914110D311461846224600F016F82D1A73
:1006700067EB01084F4622460120002100F00DF8EB
:1006800017EB00094E41201EA4F10104DFDC4846AF
:1006900031462A464346BDE8F09F202A04DB203A33
:1006A00000FA02F1002070479140C2F1200320FAC5
:1006B00003F3194390407047202A04DB203A21FAC3
:1006C00002F00021704721FA02F3D040C2F120026B
:1006D0009140084319467047202A06DBCB17203A81
:1006E00041FA02F043EAE07306E041FA02F3D04037
:1006F000C2F1200291400843194670470268114434
:100700001378016018467047D1600449516104496B
:10071000116200211161114600F038B9FD06000890
:1007200081090008426842B1016811F8013B23B118
:10073000521EC0E90012184670470121C160881E90
:10074000704742685AB1C368016843B983688B42F5
:1007500005D0491E521CC0E90012002070474FF01E
:10076000FF30704710B5141E73F1000408DA401C06
:1007700041F1000192185B411A4301D120F00100C0
:1007800010BD2DE9F04D92469B4611B1B1FA81F2B0
:1007900002E0B0FA80F220329046FFF77EFF044676
:1007A0000F4640EA0A0041EA0B0153465A46084305
:1007B00013D0114653EA010019D0C8F14002504647
:1007C000FFF77AFF05460E46504659464246FFF768
:1007D00064FF084305D0012004E020463946BDE807
:1007E000F08D0020054346EAE0762C4337430A9813
:1007F0006305E40AA0EB08000022FD0A44EA47541E
:100800000A3002D500200146E9E7010510196941C7
:10081000DDE9084500196941BDE8F04DA2E72DE981
:10082000F04D81EA030404F0004B21F0004514462A
:100830004FF0000A23F0004150EA050220D054EAAC
:1008400001021DD0C5F30A570246C5F31303C1F3D5
:100850001300C1F30A5640F4801543F48013A7EB4C
:100860000608101BD64608F2FD3873EB050002D3CC
:1008700008F1010801E092185B41B8F1000F03DABA
:1008800000200146BDE8F08D00204FF4801106469F
:1008900084460EE0171B73EB050705D3121B63EBB1
:1008A000050306434CEA010C49084FEA3000921850
:1008B0005B4150EA0107EDD152EA030012D082EA0F
:1008C000040083EA0501084305D0101BAB4106D2A2
:1008D0000122002306E000224FF0004302E06FF007
:1008E000010253101AEB06004CEB085110EB0A0002
:1008F00041EB0B01BDE8F04DFFF734BF70B521F0BF
:10090000004303430CD0C1F30A550024D5EB040582
:1009100064EB0403D617AD1AB34102DB0020014695
:1009200070BD201841EB025170BDC1F30A52C1F3F2
:10093000130140F2FF3341F480119A4202DA0020A1
:100940000146704740F233439A42A2F2334202DC3E
:100950005242FFF7B1BEFFF7A0BE0000064C074DA4
:1009600006E0E06840F0010394E80700984710347F
:10097000AC42F6D3FFF7E0FB3C4A00085C4A0008B3
:10098000C0B24FF4F05100F0E9B900002DE9F34F87
:100990008BB04FF0000801F10C000C464FF0010B3A
:1009A00046460DF1080A01906269012101989047BD
:1009B000051E2DD0252D2CD0216A8847C0B1626933
:1009C000012101989047216A88470028F7D1411EEC
:1009D00062690198904700E0761CA1690B988847EE
:1009E000216A88470028F7D1E1690B988847DBE73F
:1009F000A1690B9888470746A84201D1761CD3E726
:100A0000E1690B9888477F1C02D1B8F1000F6FD0C5
:100A100046E1002762693D463946019890472A28F9
:100A200004D162690121019890470125DFF8849281
:100A30006269012101989047A0F130010A290AD288
:100A40004F45E5DC07EB870100EB4107303FDFD482
:100A500045F01005ECE7E90601D46FF000476C287B
:100A60000AD04C2814D0682815D06A280DD07428D4
:100A70001CD07A281AD01DE06269012101989047A4
:100A80006C2802D045F0040514E045F002050DE0A5
:100A900045F020050AE06269012101989047682825
:100AA00002D045F0080505E045F4006562690121C2
:100AB00001989047C4E9015765283DD019DC5828B2
:100AC0007AD00CDC452837D004DC252826D04128F4
:100AD00031D131E046282FD047282CD12CE05B289B
:100AE00077D0612828D063287CD0642823D15AE0AD
:100AF000D0E06F2848D008DC66281DD067281BD0BE
:100B0000692821D06E2816D127E0702845D0732897
:100B100068D0752847D078280DD14DE0A1690B9891
:100B20008847054625283FF469AFE1690B98884757
:100B30006D1C3FF46AAFB3E023466A466FF00100D4
:100B40000B99AFF300809EE045F040006060A8077D
:100B500023464FF0000236D43EE0E8077FF447AF6B
:100B60002068011D21600068290501D506701BE77A
:100B7000290701D5068017E7A90703D5F117C0E9B2
:100B8000006111E706600FE745F040006060A807CC
:100B900023464FF0080216D41EE040F60E0125EA67
:100BA0000100606016E045F040006060A807234641
:100BB0004FF00A0207D40FE045F040006060A8073C
:100BC00008D5234610226FF001000B99AFF3008087
:100BD00059E007E0234610226FF001000B99AFF3B4
:100BE000008050E04FF000094F464B46632802D08A
:100BF0005B2806D040E0E80601D40120A060012770
:100C00003AE062690121019890475E2805D14FF0D2
:100C100001096269494601989047216939B9002163
:100C20000A46534643F82120491C0829FADBB0B391
:100C3000216969B9C11700EBD16253110AEB830135
:100C400022F01F02821A01200B68904003430B60C0
:100C500062690121019890475D28E8D1B9F1000F40
:100C600009D00020514651F82020D24341F82020DD
:100C7000401C0828F7DB02AB224600976FF001000A
:100C80000B99FFF7F1FA00280CDA401C08D1BBF1F0
:100C9000000F05D04FF0FF300DB0BDE8F08FFFE73B
:100CA0004046F9E7E90701D108F1010806444FF091
:100CB000000B79E6CCCCCC0C2DE9F04D00231A4684
:100CC0001B1A8A4103DB00200146BDE8F08DC1F309
:100CD0000A52C1F3130141F480154FF0000BD10704
:100CE00002D100186D41521E0027044640F2FF1148
:100CF000384601EB620A3E468046024600204FF429
:100D00008011FFF7D9FCC2197141BB1846EB0100F5
:100D1000B4EB030C75EB000C04D3E41A65EB00058F
:100D200017460E46241908F101006D41804634280B
:100D3000E3DDF91946EB0600091BA84103D24FF089
:100D4000FF32134601E0002213461BEB070046EB7F
:100D50000A51BDE8F04DFFF705BD00007F2801D91D
:100D6000002208E0064A02EB5002C007127800D1C8
:100D7000120902F00F020120904008407047000065
:100D8000F049000800BFFEE710B54FF48061044849
:100D9000FFF703FA00200249A1F8000410BD00008B
:100DA0007405002010B5002400F024F804E0601C55
:100DB000C4B2012002F098FA0D48006808B1642C12
:100DC000F5DB642C01DB012010BD002404E0601C75
:100DD000C4B2012002F088FA0548006808B9642C02
:100DE000F5DB642C01DB0120EEE70020ECE70000DE
:100DF0002C01244208B54FF40060ADF800004820F3
:100E00008DF803006946024800F0AAFB08BD000007
:100E10000020014008B54FF40060ADF8000010203C
:100E20008DF8030003208DF802006946014800F0A8
:100E300097FB08BD0020014008B50121080200F021
:100E400013FE4FF40060ADF8000010208DF8030091
:100E500003208DF802006946064800F081FB4FF43C
:100E60000061044800F052FC00F068F8FFF79AFFB8
:100E700008BD00000020014010B5002404E0601C03
:100E8000C4B2012002F030FA0D48006808B1642CA9
:100E9000F5DB002404E0601CC4B2012002F024FA57
:100EA0000748006808B9642CF5DB282002F01CFA1A
:100EB0000348006808B1012010BD0020FCE70000D5
:100EC0002C01244270B50024002506E06006040EC3
:100ED000FFF7D2FF0443681CC5B2082DF6DB20469D
:100EE00070BD7CB505460E4600F028F8FFF75AFFA6
:100EF000F8B9002405E0FFF7E5FF0DF80400601CD9
:100F0000C4B2052CF7DB9DF800009DF801100844E1
:100F10009DF8021008449DF8031008449DF8041041
:100F2000884208D19DF8000030709DF802002870BA
:100F300001E001207CBD0020FCE7000010B5FFF7B8
:100F400069FF002006490860142002F08BF9012097
:100F50000449C1F8AC011E2002F0C6F910BD000022
:100F6000AC012442000024427047000010B54FF449
:100F70000041094800F0CAFB4FF47A7002F072F9A0
:100F800001E000F03FF9C823002204A104A000F012
:100F900019F80028F5D010BD000801404F4B0000A3
:100FA0004154000010B50446012C04D1102104481E
:100FB00000F0ACFB03E01021014800F0A5FB10BDE0
:100FC000000801402DE9F04106460C4615461F4633
:100FD000FFF7DAFE324621A1224801F0E9F81CB9F8
:100FE00015B90120BDE8F081B8B202F03BF900204C
:100FF0001D49B1F80014C1F30E011B4A50541146AB
:101000001AA001F0D3FAB4B1ADB121461648FFF7EA
:10101000CFF808B1012000E0002040B9294612486D
:10102000FFF7C6F808B1012000E0002008B1012058
:10103000D8E70020D6E744B121460B48FFF7B8F8BF
:1010400008B10120CEE70020CCE729460648FFF78B
:10105000AFF808B10120C5E70020C3E725730D0AEA
:1010600000000000004800407405002025730000C7
:1010700030B59FB004460D462B46224606A101A876
:1010800001F0A4FA41F65833002208A101A8FFF7A5
:1010900099FF1FB030BD000041542B43574A4150C7
:1010A0003D222573222C2225732200004F4B000085
:1010B00070B5B8B004460D46164664211FA8FFF768
:1010C0006CF82B46224609A11FA801F07FFA1FAA3F
:1010D00008A101A801F07AFA4FF4FA730AA20EA14E
:1010E00001A8FFF76FFF38B070BD00002225732202
:1010F0002C25730041542B4D515454434F4E4E3DBB
:10110000302C25732C300000414C5245415920436E
:101110004F4E4E45435400004F4B000070B5B8B0E1
:1011200004460D46164664211FA8FFF736F82B46E5
:10113000224607A101A8009601F048FA4FF4FA737D
:101140000DA211A101A8FFF73DFF38B070BD00004E
:1011500041542B4D5154545055423D302C2225734F
:10116000222C227B5C2225735C223A5C2225735C54
:10117000227D222C312C3000414C524541592043D4
:101180004F4E4E45435400004F4B000010B50446EF
:1011900024B1012C0AD0022C18D10FE040F6C41360
:1011A0000BA20EA10EA0FFF70DFF10BD40F6C41359
:1011B00007A20AA10DA0FFF705FFF6E740F6C4134A
:1011C00003A206A10CA0FFF7FDFEEEE70020ECE76E
:1011D0006E6F206368616E67650000004F4B000012
:1011E00041542B43574D4F44453D310041542B430F
:1011F000574D4F44453D320041542B43574D4F44CA
:10120000453D330010B54FF40041064800F07CFA2C
:101210004FF4FA7002F026F84FF40041014800F054
:1012200075FA10BD000801402DE9F04F89B03BA7C9
:101230000FF2EC0B3DA0089040A007900024A046C0
:101240000025A1460026A2460020069005900490A5
:1012500003903CA0029041A00068019040A001F0E2
:10126000A5F90120FFF79EFEFFF780FE394643A057
:1012700001F09CF90020FFF789FF11E0594638463C
:10128000FFF7F6FE8046B8F1000F09D1611C43A0BC
:1012900001F08CF9601CC4B24FF47A7001F0E2FFE7
:1012A000032C02DAB8F1000FE8D048A001F07EF973
:1012B0000FE000F019F98246BAF1000F09D1711C54
:1012C00049A001F073F9701CC6B24FF47A7001F0B6
:1012D000C9FF032E02DABAF1000FEAD04EA001F0E6
:1012E00065F912E00922DDE90710FFF7E1FE81460A
:1012F000B9F1000F09D1691C50A001F057F9681C21
:10130000C5B24FF47A7001F0ADFF032D02DAB9F1E6
:10131000000FE7D009B0BDE8F08F00006D616900F3
:101320003132333435363738000000003139322E4F
:101330003136382E31382E3800000000313838333D
:10134000000000006D7174745F6465762F64656DD4
:101350006F312F7265706F727400000030000000F2
:101360000D0A496E697469616C697A696E67204516
:101370005350383236362E2E2E0D0A000D0A436F8A
:101380006E6E656374696E6720746F205769466975
:101390003A2025732E2E2E0D0A0000000D0A5769E3
:1013A000466920636F6E6E656374696F6E20666157
:1013B000696C65642C207265747279696E6720258A
:1013C000642F332E2E2E0D0A000000000D0A5365E7
:1013D0007474696E67204D51545420757365722E74
:1013E0002E2E0D0A000000000D0A53657474696EFC
:1013F00067204D5154542075736572206661696C85
:1014000065642C207265747279696E672025642F7B
:10141000332E2E2E0D0A00000D0A436F6E6E65638B
:1014200074696E6720746F204D5154542073657237
:101430007665722E2E2E0D0A000000000D0A4D5109
:1014400054542073657276657220636F6E6E6563A7
:1014500074696F6E206661696C65642C20726574B6
:101460007279696E672025642F332E2E2E0D0A00A7
:1014700030B5B7B004460D4664211EA8FEF78DFEB8
:101480002B46224608A1684601F0A0F869460CA048
:1014900001F08CF84FF4FA730EA212A16846FFF720
:1014A00091FD37B030BD000041542B4D5154545381
:1014B00055423D302C222573222C2573000000005C
:1014C00073656E642073756220636D643A202573C2
:1014D0000D0A0000414C5245415920434F4E4E45A4
:1014E000435400004F4B000000B5B7B064211EA864
:1014F000FEF753FE06A1684601F068F84FF4FA7350
:1015000012A216A16846FFF75DFD37B000BD0000CE
:1015100041542B4D515454555345524346473D3049
:101520002C312C22746573745573657234303032EB
:10153000222C2261646D696E222C223132333435C3
:10154000363738222C302C302C222200414C524588
:10155000415920434F4E4E45435400004F4B00002D
:101560002DE9F0410246002500260020002300243A
:10157000002791F803C00CF00F0591F803C00CF0A0
:10158000100CBCF1000F03D091F802C04CEA050525
:1015900091F800C0BCF1000F31D0146800202BE09E
:1015A0004FF0010C0CFA00F3B1F800C00CEA03068E
:1015B0009E4220D183004FF00F0C0CFA03F7BC437E
:1015C00005FA03FC4CEA040491F803C0BCF1280FAF
:1015D00006D14FF0010C0CFA00FCC2F814C00AE06E
:1015E00091F803C0BCF1480F05D14FF0010C0CFA83
:1015F00000FCC2F810C0401C0828D1D31460B1F818
:1016000000C0BCF1FF0F34DD546800202EE000F173
:10161000080C4FF0010808FA0CF3B1F800C00CEA0E
:1016200003069E4221D183004FF00F0C0CFA03F702
:10163000BC4305FA03FC4CEA040491F803C0BCF176
:10164000280F05D100F1080C08FA0CF8C2F8148034
:1016500091F803C0BCF1480F07D100F1080C4FF01E
:10166000010808FA0CF8C2F81080401C0828CED3F4
:101670005460BDE8F0810000F0B50A460023002464
:101680000021002500F00046B6F1004F02D11D4EAA
:10169000F16901E01B4E7168C0F3034583B200F4A9
:1016A0004016B6F5401F08D121F07061154E7668DE
:1016B00026F07066134F7E6012E000F48016B6F5D7
:1016C000801F06D1032606FA05F4A14341F070619C
:1016D00006E0460D360103FA06F6B14341F07061AB
:1016E00022B1460D360103FA06F6314300F00046FA
:1016F000B6F1004F02D1034EF16101E0014E71607D
:10170000F0BD000000000140416170470161704779
:1017100070B504460D46164607A000F047FF214667
:101720000CA000F043FF29460DA000F03FFF284623
:1017300002F0E6F870BD0000526563656976656485
:10174000204D515454206D6573736167653A0D0ADD
:1017500000000000546F7069633A2025730D0A0081
:101760004D6573736167653A2025730D0A0D0A0094
:1017700000BFFEE708B50121482000F075F92020E0
:10178000ADF8000010208DF8030003208DF8020052
:1017900069460948FFF7E4FE20210748FFF7B6FF36
:1017A0002020ADF8000069460448FFF7D9FE20214B
:1017B0000248FFF7ABFF08BD000C014000180140D4
:1017C00010B520210348FFF7A1FF20210248FFF7B1
:1017D0009DFF10BD000C01400018014010B52021F4
:1017E0000348FFF791FF20210248FFF78DFF10BD4E
:1017F000000C01400018014010B504460DA1204620
:10180000FEF7F9FC28B9FFF7E9FF0BA000F0CEFEC8
:101810000EE00DA12046FEF7EEFC28B9FFF7D0FF41
:101820000AA000F0C3FE03E021460DA000F0BEFEBA
:1018300010BD00006F6E00004C6564207475726E00
:101840006564206F6E0D0A006F6666004C6564204B
:101850007475726E6564206F66660D0A0000000084
:10186000496E76616C696420737461746520666F7B
:1018700072204C45443A2025730D0A0000BFFEE754
:1018800010B504460FA12046FEF7B5FC40B94FF451
:10189000C8710D4800F003FB0CA000F087FE10E0BB
:1018A0000EA12046FEF7A7FC38B90021064800F03B
:1018B000F6FA0BA000F07AFE03E021460CA000F03F
:1018C00075FE10BD6F6E0000000400404D6F746F18
:1018D0007220737461727465640D0A006F6666002D
:1018E0004D6F746F722073746F707065640D0A00B1
:1018F000496E76616C696420737461746520666FEB
:1019000072204D6F746F723A2025730D0A0000002B
:101910007047000070B5002100230F22C47804B383
:10192000154C246804F4E064C4F5E064210AC1F1B4
:101930000403CA40447804FA03F184781440214334
:1019400009010E4C0678A155047804F01F05012406
:10195000AC4005786D11AD0005F1E025C5F80041FA
:1019600009E0047804F01F050124AC40044D06781A
:10197000761145F8264070BD0CED00E000E400E073
:1019800080E100E002490143024A11607047000013
:101990000000FA050CED00E0704700002DE9F04171
:1019A000B0B00446884621461DA000F0FFFD20A1EE
:1019B0002046FEF7FDFB00282FD02C212046FEF705
:1019C00009FC451C2C212846FEF704FC461C2C2152
:1019D0003046FEF7FFFB471C202128A8FEF7DDFB61
:1019E000202120A8FEF7D9FB80216846FEF7D5FB11
:1019F00028AA13A12846FEF71BFC20AA10A13046F6
:101A0000FEF716FC6A460EA13846FEF711FC20AA26
:101A1000694628A8FFF77CFE00BF30B0BDE8F08122
:101A20005B52415720444154415D2025730D0A000B
:101A30002B4D515454535542524543563A000000E1
:101A4000255B5E2C5D00000029B1064AD269024385
:101A5000044BDA6104E0034AD2698243014BDA6144
:101A6000704700000010024029B1064A9269024303
:101A7000044B9A6104E0034A92698243014B9A61E4
:101A8000704700000010024030B500210022002401
:101A900000232D4D6D6805F00C0121B1042905D0FE
:101AA000082923D105E0294D056022E0274D056076
:101AB0001FE0254D6D6805F47012234D6D6805F427
:101AC0008034022505EB92421CB9214D5543056037
:101AD0000BE01D4D6D6805F400351DB11C4D5543DF
:101AE000056002E0194D5543056002E0174D0560A1
:101AF00000BF00BF144D6D6805F0F0010909154DD8
:101B00006B5C0568DD4045600F4D6D6805F4E06174
:101B1000090A104D6B5C4568DD4085600A4D6D68B3
:101B200005F46051C90A0B4D6B5C4568DD40C5602A
:101B3000054D6D6805F44041890B074D6B5CC56828
:101B4000B5FBF3F5056130BD0010024000127A00CC
:101B500000093D007400002084000020704710B58B
:101B600000F002F810BD00000CB5002001900090BC
:101B70003348006840F480303149086000BF304885
:101B8000006800F4003000900198401C019000981B
:101B900018B90198B0F5A06FF1D12948006800F498
:101BA000003010B10120009001E00020009000986A
:101BB000012843D12348006840F010002149086003
:101BC0000846006820F0030008600846006840F0FE
:101BD000020008601A484068194948600846406891
:101BE00048600846406840F48060486008464068A5
:101BF00020F47C1048600846406840F4E8104860D3
:101C00000846006840F08070086000BF0C4800681B
:101C100000F000700028F9D00948406820F0030067
:101C2000074948600846406840F00200486000BF2D
:101C30000348406800F00C000828F9D10CBD0000F2
:101C40000010024000200240042808D14FF0E0219B
:101C5000096941F004014FF0E022116107E04FF003
:101C6000E021096921F004014FF0E0221161704781
:101C70007047000010B504466FF00400FFF7E4FF62
:101C8000E11704EB5171C1F3C701074A1170104607
:101C9000007800EB4001C1EBC0104FF6FF7101EA84
:101CA000C0000249088010BD880000208A00002082
:101CB00010B51348006840F001001149086008465B
:101CC0004068104908400E494860084600680E49BF
:101CD00008400B4908600846006820F4802008602E
:101CE0000846406820F4FE0048604FF41F008860FA
:101CF000FFF735FF4FF000600449086010BD000099
:101D0000001002400000FFF8FFFFF6FE08ED00E0C3
:101D100030B589B005460C4601210820FFF7A4FE26
:101D200001210220FFF790FE01210846FFF79CFEEB
:101D30002020ADF8040003208DF8060018208DF84F
:101D4000070001A91748FFF70BFC01211648FFF710
:101D500093FCADF81C50ADF818400020ADF81E0003
:101D6000ADF81A0006A9114800F09CF86020ADF803
:101D700008000220ADF810000120ADF80A0002A909
:101D80000A4800F02DF80821084800F07BF80121EE
:101D9000064800F00DF80121044800F015F809B0DC
:101DA00030BD0000000C014000081A000004004093
:101DB00021B1028842F08002028004E002884FF6DE
:101DC0007F731A400280704721B1028842F00102FD
:101DD000028004E002884FF6FE731A4002807047CA
:101DE00070B5002400220023058C4FF6EF763540B5
:101DF0000584028C8388048B48F6FF752C404FF6CF
:101E0000FF452C400D884FF6FF7606EA05252C434A
:101E10004FF6DF752A400D8906EA05152A434D88DD
:101E200006EA05152A43154DA84202D0144DA842D2
:101E30001DD14FF67F752A404D894FF6FF7606EA91
:101E400005152A434FF6BF752A408D8806EA051509
:101E50002A434FF6FF352B404FF2FF752B408D89FB
:101E600006EA85052B43CD8906EA85052B43838049
:101E70000483CD880587028470BD0000002C0140DA
:101E8000003401400A460021018B4FF2FF731940D4
:101E90004FF6FF7303EA022319430183704701875A
:101EA00070470000002202881D4B98420ED01D4B47
:101EB00098420BD0B0F1804F08D01B4B984205D010
:101EC0001A4B984202D01A4B984204D14FF68F73A6
:101ED0001A404B881A43174B984207D0164B98422A
:101EE00004D04FF6FF431A40CB881A4302808B88F8
:101EF00083850B8803850A4B98420BD0094B984287
:101F000008D00E4B984205D00D4B984202D00D4B95
:101F1000984201D10B7A0386012383827047000027
:101F2000002C014000340140000400400008004043
:101F3000000C004000100040001400400040014030
:101F400000440140004801407FB547A30FCB8DE816
:101F50000F0040F22551484800F0DEF9002874D007
:101F6000454800F095FAC5B24448008800F40040A6
:101F7000002872D14148008800F48040002849D0F0
:101F80000A2D03D000203D49088066E03B480088C8
:101F900040F400403949088008460088C0F30D0627
:101FA00000240DE000BF8021334800F0A8F900288C
:101FB000F9D01DF80410304800F06FFA601C84B2AC
:101FC0006846FEF711F9A042ECD800BF80212A48EC
:101FD00000F095F90028F9D02021274800F05DFA9B
:101FE00000240DE000BF8021234800F088F900287C
:101FF000F9D02348015D204800F04FFA601C84B2FC
:10200000B442EFDB00201D490880C8211C48FEF7C0
:10201000C4F822E00D2D06D11848008840F4804015
:102020001649088019E015480088C0F30D00C8283B
:102030000CDA12480088C0F30D0011490D540F4806
:102040000088401C0D49088007E00BE000200B4988
:102050000880C8210A48FEF7A0F840F2255106483A
:1020600000F032F97FBD0000726573706F6E7365AA
:1020700020746578743A0000003801408C0000201C
:10208000AC04002010B586B0044601210420FFF7FF
:10209000EBFC01218803FFF7E7FC4FF40070ADF87B
:1020A000140003208DF8160018208DF8170005A9DC
:1020B0001E48FFF755FA4FF48060ADF81400042075
:1020C0008DF8170005A91948FFF74AFA0194002076
:1020D000ADF80800ADF80A00ADF80C00ADF810003E
:1020E0000C20ADF80E0001A9114800F065F901219E
:1020F0000F4800F0F8F840210D4800F0DCF801220C
:1021000040F225510A4800F031F925208DF80000F1
:1021100003208DF801008DF8020001208DF80300E6
:102120006846FFF7F7FB06B010BD0000000801404D
:102130000038014010B540F225511B4800F0ECF882
:10214000D8B1194800F0A4F9C4B21848B0F8000496
:10215000C0F30E0040F2FF3188420EDA1349B1F8A5
:102160000014C1F30E00411C104AB2F8002461F3C0
:102170000E020E49A1F800240C5440F224410A48F2
:1021800000F0CAF801280DD10848B0F8000420F486
:10219000004000F500400549A1F80004024800F0A5
:1021A00077F9C4B210BD000000480040740500205B
:1021B0000FB470B586B006460CA8019073E00B987A
:1021C00000785C281CD10B98401C0B9000786E287E
:1021D00009D072280FD10D21304600F05EF90B981E
:1021E000401C0B900BE00A21304600F056F90B988A
:1021F000401C0B9003E00B98401C0B9000BF4BE081
:102200000B980078252840D10B98401C0B90007843
:10221000642818D0732833D1019810C801900BE0BE
:102220002178304600F039F900BF8021304600F0B7
:1022300066F80028F9D0641C20780028F0D10B98AB
:10224000401C0B9020E0019820C801900A2202A9AE
:10225000284601F0A9F802AC0BE02178304600F0E6
:102260001CF900BF8021304600F049F80028F9D061
:10227000641C20780028F0D10B98401C0B9003E0E0
:102280000B98401C0B9000BF06E00B9810F8011B48
:102290000B90304600F001F900BF8021304600F07D
:1022A0002EF80028F9D00B980078002887D106B0C6
:1022B00070BC5DF814FB01F40072B2F5007F00D130
:1022C00000BFCA430280704710B50022002340F6C9
:1022D0006A14A14200D100BF0A1201249440A3B2A3
:1022E000DC43048010BD21B1828942F40052828116
:1022F00004E082894DF6FF731A40828170470246DE
:102300000020B1F5007F00D100BF13880B400BB156
:10231000012000E00020704770B502460024002331
:102320000025002040F66A16B14200D100BFC1F37B
:10233000421501F01F03012606FA03F3012D02D115
:102340009689334006E0022D02D1168A334001E01F
:10235000968A33400C12012606FA04F4168834409B
:1023600013B10CB1012000E0002070BDF0B50346B0
:10237000002400260025002040F66A17B94200D14B
:1023800000BF1846C1F3421401F01F06012707FAE7
:1023900006F5012C01D10C3004E0022C01D11030E3
:1023A00000E014301AB107682F43076002E00768A5
:1023B000AF430760F0BD00002DE9F04786B0054649
:1023C0000E460024A24600BFA1460027B08900B1F6
:1023D00000BF2F462C8A4CF6FF700440F08804435F
:1023E0002C82AC894EF6F3100440B0883189084342
:1023F000718908430443AC81AC8A4FF6FF40044026
:10240000B0890443AC8201A8FFF73EFB1F48874216
:1024100002D1DDF810A001E0DDF80CA0A88900F4DD
:10242000004040B10AEBCA0000EB0A1031684900D5
:10243000B0FBF1F807E00AEBCA0000EB0A103168C4
:102440008900B0FBF1F86420B8FBF0F0040120092A
:10245000642101FB1089A88900F4004040B13220BA
:1024600000EBC900B0FBF1F000F00700044308E006
:10247000322000EB09106421B0FBF1F000F00F00F6
:1024800004432C8106B0BDE8F0870000003801400D
:1024900001468888C0F308007047C1F308028280B3
:1024A000704700BFFEE7000000B587B00121880437
:1024B000FFF7CAFA01210820FFF7D6FA012104200C
:1024C000FFF7D2FA01210846FFF7CEFA012133487F
:1024D000FFF7D2F848F21000ADF8180010208DF880
:1024E0001B0003208DF81A0006A92D48FFF738F8C5
:1024F00010212B48FFF708F94FF400412848FFF757
:1025000005F94FF48060ADF8180003208DF81A002B
:1025100018208DF81B0006A92248FFF721F84FF478
:102520000060ADF8180004208DF81B0006A91D48B6
:10253000FFF716F84FF4E13002900020ADF80C00E0
:10254000ADF80E00ADF81000ADF814000C20ADF899
:10255000120002A91448FFF72FFF012240F2255173
:102560001148FFF703FF012240F224410E48FFF714
:10257000FDFE01210C48FFF7B6FE27208DF8040070
:1025800000208DF805008DF8060001208DF8070069
:1025900001A8FFF7BFF907B000BD0000000230003E
:1025A00000080140000C0140004800400FB4054BFA
:1025B00010B503A9044A029800F07EF910BC5DF83A
:1025C00014FB0000353300089C0000200FB4084BBA
:1025D00010B504A902AA039800F06EF9044602A9F6
:1025E000002000F000FD204610BC5DF814FB000048
:1025F000E72F0008490050EAC12018BF04204A0D07
:1026000018BF40F0010040F2FF72B2EB515F08BF0B
:1026100040F00200012808BF052070472DE9F04175
:102620004F1E00EBC7010446D1E9000115461E46C6
:1026300037F006020DD02A463346FDF72CFF7F1EE9
:1026400004EBC703D3E90023FDF77EFE37F0060253
:10265000F1D1022F25D0042F13D0062F18BFBDE8CB
:10266000F0812A463346FDF716FFD4E90A23FDF729
:102670006BFE2A463346FDF70EFFD4E90823FDF72B
:1026800063FE2A463346FDF706FFD4E90623FDF72D
:102690005BFE2A463346FDF7FEFED4E90423FDF730
:1026A00053FE2A463346FDF7F6FED4E90223FDF732
:1026B0004BFE2A463346FDF7EEFED4E90023BDE883
:1026C000F041FDF741BE00000022134610460149CB
:1026D000FEF7A5B80000F03FFDF736BE0022134616
:1026E00010461146FEF79BB840F2013200204FF031
:1026F000E041FEF703B90000024A00201107FEF78F
:10270000FDB8000001FDFFFF02E008C8121F08C16C
:10271000002AFAD170477047002001E001C1121F62
:10272000002AFBD170470000014908607047000093
:10273000A80000202DE9FF5F82B00021DDE9043010
:10274000020DDDF840B0034318D044F61050A2F259
:10275000FF3242431514119801281FD0A5EB0B003E
:10276000401C5FEA000A4FF000064E4FDFF8389138
:10277000B046504615D5CAF1000413E01198012463
:102780004AA3012801D16FEA0B010298119AC0E90E
:102790000031C0E9024206B0BDE8F09FCBF1000075
:1027A000DFE704460021404A491842EB0450CDE9D6
:1027B000001012E0E00707D032463B46404649464B
:1027C000FDF769FE8046894632463B46104619466B
:1027D000FDF761FE06460F466410002CEAD1DDE9E4
:1027E0000401DDE90023BAF1000F06DAFDF753FE1C
:1027F00042464B46FDF74FFE05E0FEF710F8424615
:102800004B46FEF70CF804460E460022284BFDF717
:10281000E5FE03D84FF0FF30014607E00022254BCC
:1028200020463146FDF790FDFEF77FF8102409E0C1
:10283000002C0ADB0A220023FDF7FEFE039B303248
:102840001A55641E50EA0102F2D1641C039AC4F1C5
:1028500011031444119A012A03D0012208430DD117
:102860000AE0084304D000204FF0110B119072E7EA
:10287000A3EB0B056D1E0DE05B4504DD4FF0000280
:1028800005F1010504E003DA4FF00002A5F10105AE
:10289000002AECD002981199C0E90231C0E9004544
:1028A00079E70000000014400000F03F3000000015
:1028B0000000F0430000E03F2DE9FF4F95B09B463C
:1028C0008946064600250FE2252877D100242746B1
:1028D000F84A0121059400E0044316F8013F203B2B
:1028E00001FA03F01042F7D130782A2811D06FF0A6
:1028F0002F033078A0F13002092A16D8059A44F047
:10290000020402EB820203EB42021044761C0590A3
:10291000EFE759F8042B0592002A03DA504244F4F9
:102920000054059044F00204761C30782E2816D10D
:1029300016F8010F44F004042A280DD06FF02F027E
:102940003078A0F13003092B09D807EB870302EB9D
:102950004303C718761CF3E759F8047B761C3078DC
:102960006C280FD006DC4C2817D068280DD06A28B8
:1029700014D104E0742810D07A280FD10DE044F46B
:1029800000140AE044F4801401E044F44014727826
:10299000824202D104F58014761C761C30786628B9
:1029A0000BD013DC582877D009DC002875D04528D7
:1029B000F6D04628F4D047281AD19DE118E06328C4
:1029C00035D0642879D0652812D195E1702873D06C
:1029D00008DC6728F1D069286FD06E280DD06F28E9
:1029E00006D1B5E073282CD0752875D0782874D01E
:1029F0005A46179990476D1C75E1C4F3025002289E
:102A000009D003280DD0D9F8001004280DD00D608E
:102A100009F1040967E1D9F80010EA17C1E9005289
:102A2000F6E7D9F800100D80F2E70D70F0E719F81D
:102A3000041B8DF8001000208DF80100EA460120EB
:102A400003E059F804AB4FF0FF3061074FF000018D
:102A500002D40DE008F101018846B9420FDA804541
:102A6000F8DB1AF808100029F4D108E008F1010198
:102A700088468142FADB1AF808100029F6D1059839
:102A80005B46A0EB080721463846179A00F094FAF7
:102A9000284400EB080507E04DE029E10DE01AF8B5
:102AA000010B5A4617999047B8F10108F7D25B46D7
:102AB00021463846179A13E142E00A220092C4F3F5
:102AC00002524FF0000A022A08D059F804CB032A18
:102AD0004FEAEC710AD00DE029E02AE009F1070184
:102AE00021F00702F2E802C1914609E00FFA8CFCDE
:102AF0004FEAEC71042A03D14FFA8CFC4FEAEC71D7
:102B0000002907DA0A460021DCF1000C61EB020122
:102B10002D2202E0220504D52B228DF8042001226B
:102B200003E0E20701D02022F7E7904659E00A21AE
:102B300002E010220DE010214FF0000A00910BE09E
:102B400010224FF0000A44F004040827009203E02A
:102B500008224FF0000A0092C4F30252022A05D064
:102B600059F804CB0021032A08D009E009F1070134
:102B700021F00702F2E802C1914605E01FFA8CFC41
:102B8000042A01D10CF0FF0C4FF00008220728D5D1
:102B9000702806D0009B83F0100353EA0A0305D087
:102BA0000EE040228DF80420012208E05CEA0102D8
:102BB00006D030228DF804208DF8050002229046C0
:102BC000009B83F0080353EA0A030AD15CEA01027E
:102BD00001D1620705D530228DF804204FF001089D
:102BE0007F1E582804D034A003900EA802900DE058
:102BF00036A0F9E753466046009AFDF71DFD84466E
:102C00000398825C0298401E029002705CEA010008
:102C1000F0D1029806A9081A00F1200A600702D52F
:102C200024F4803400E00127574502DDA7EB0A00B9
:102C300000E0002000EB0A01009005984144401A92
:102C40000590E00306D45B462146179A059800F0EC
:102C5000B3F90544002706E001A85A46C05D17995C
:102C600090476D1C7F1C4745F6DBE0030CD55B46A7
:102C70002146179A059800F09FF9054404E030209A
:102C80005A46179990476D1C0099481E00900029DC
:102C9000F5DC08E0029802995A460078491C029136
:102CA000179990476D1CBAF10001AAF1010AF1DCF5
:102CB00065E1000009280100303132333435363700
:102CC0003839616263646566000000003031323378
:102CD0003435363738394142434445460000000018
:102CE00000F058F90544761C307800287FF4ECADEC
:102CF00019B02846BDE8F08F620700D4062709F115
:102D0000070222F0070CFCE80223E14603F000482A
:102D10005FEA080C02D00FF2702C0DE05FEA045C51
:102D200002D50FF2682C07E05FEAC47C02D00FF2F4
:102D3000602C01E0AFF2700C4FF0FF3823F000433D
:102D4000CDF850C065280CD006DC452809D04628AF
:102D50001DD047283DD13DE0662818D067287ED198
:102D600038E00021112F01DB112000E0781CCDE9B3
:102D7000000106A90EA8FFF7DDFCDDE90F010E9AA0
:102D800003910021009207F1010A04914DE04FF0F8
:102D900000400097CDE9011006A90EA8FFF7CAFC74
:102DA000DDE90F0203920E9B11990022DDF80CA0C1
:102DB0000093049211B9791C00EB010AB7EB0A00E9
:102DC00004D4C0F1FF3007F1010A0490AAEB070018
:102DD000019044E0012F00DA01270021112F01DDCD
:102DE000112000E03846CDE9000106A90EA8FFF742
:102DF000A1FCDDE90F010E9A0391002104910092DC
:102E0000BA4621070CD40399514500DA8A46BAF133
:102E1000010F05DD009AAAF10101515C302908D0AB
:102E2000B84202DA10F1040F06DA0121CDE90110EF
:102E300015E0AAF10101E9E7002805DC0499014445
:102E40000491AAEB000102E0411C514500DD8A46D5
:102E50000499401A401C01904FF000400290200756
:102E600004D40198504501DBCDF8048000208DF892
:102E70004F0002980DF14F07B0F1004F25D02B20E5
:102E80000E9002984FF0020800280CDA404202909F
:102E90002D200E9007E00A210298FDF7B7FB303194
:102EA000029007F8011DB8F10001A8F10108F2DC59
:102EB00002980028EFD1791E0E980870307800F043
:102EC000200040F0450007F8020D12A8C01B00F1D9
:102ED00007081498007800B1012000EB0A0101985E
:102EE00001EBE07105984144401A401E0590E00353
:102EF00006D45B462146179A059800F05DF8054414
:102F00001498007818B15A46179990476D1CE00341
:102F100024D55B462146179A059800F04DF80544E4
:102F20001CE00498002807DBDDE90301884203DD8B
:102F30000098405C179901E0179930205A46904755
:102F4000049805F10105401C04900198401E019071
:102F500004D12E205A46179990476D1CBAF10001F2
:102F6000AAF1010ADDDC05E017F8010B5A461799B2
:102F700090476D1CB8F10001A8F10108F4DC5B4634
:102F80002146179A0598ABE62D0000002B000000A3
:102F9000200000002DE9F041044600251E4617469A
:102FA000880404D405E039462020B0476D1C641E17
:102FB000F9D52846BDE8F0812DE9F0410446002509
:102FC0001E469046C80301D5302700E0202788041C
:102FD00004D505E041463846B0476D1C641EF9D55E
:102FE0002846BDE8F0810A68531C0B6010707047DA
:102FF00070B5044622E02568A08900F4807020B9ED
:10300000A06810B1A068FFF7F3FFA08900F48070FA
:1030100028B9206918B10B49206909688847A08937
:1030200000F4007028B9206A18B10649206A0968BE
:10303000884720460349096888472C46002CDAD186
:1030400070BD000098000020014800687047000033
:103050009000002010B528200549096888470446DB
:103060001CB128212046FDF798F8204610BD00002D
:103070009400002010B5044600221146204600F0BE
:1030800001F810BD2DE9F04780460D461646002494
:10309000FFF7E0FF07460020124908600FB9BDE8BE
:1030A000F087404601F026FC81464946384600F04C
:1030B000D7FE044624B93846FFF79AFF0020EEE712
:1030C00066B1204601F016FC0446207830B138463F
:1030D000FFF78EFF034804600020E0E705B12C6095
:1030E0003846DCE7900000201FB502A903A8FDF7D1
:1030F000F8FE9DF80C000A2190FBF1F03030C0B2D0
:103100008DF804009DF80C0090FBF1F201FB120019
:103110003030C0B28DF8050000208DF806009DF813
:10312000080090FBF1F03030C0B28DF800009DF83F
:10313000080090FBF1F201FB12003030C0B28DF8B4
:10314000010000208DF802009DF808209DF80C1069
:103150000EA0FFF72BFA01AA16A11948FDF7DEFF12
:1031600018B118A0FFF722FA02E020A0FFF71EFA1C
:103170006A4627A12948FDF7D1FF18B128A0FFF71B
:1031800015FA02E02FA0FFF711FA1FBD74656D70EC
:10319000657261747572653D2564A1E34320206802
:1031A000756D69646974793D2564252552480D0A59
:1031B0000000000074656D70657261747572650061
:1031C000000000205075626C697368656420746546
:1031D0006D70657261747572652073756363657374
:1031E0007366756C6C79210D0A0000004661696C8C
:1031F000656420746F207075626C697368207465F3
:103200006D7065726174757265210D0A00000000B1
:1032100068756D6964697479000000001C00002005
:103220005075626C69736865642068756D6964695E
:103230007479207375636365737366756C6C79213B
:103240000D0A00004661696C656420746F2070751A
:10325000626C6973682068756D6964697479210DA1
:103260000A00000070B504464FF4077094FBF0F0BC
:10327000C6B24FF4077094FBF0F100FB114085B229
:1032800005E04FF4077000F009F8701EC6B2002E7A
:10329000F7D115B1284600F001F870BD0146114A7A
:1032A00012884A434FF0E0235A6100229A611A467D
:1032B000126942F001021A6100BF4FF0E02210696A
:1032C00000F001021AB100F48032002AF5D04FF06C
:1032D000E022126922F001024FF0E0231A6100227D
:1032E0009A6170478A0000200146114A12784A43C9
:1032F0004FF0E0235A6100229A611A46126942F0A7
:1033000001021A6100BF4FF0E022106900F00102D3
:103310001AB100F48032002AF5D04FF0E022126991
:1033200022F001024FF0E0231A6100229A617047F7
:103330008800002070B504460D46E1B20548FFF74D
:10334000ACF800BF80210348FEF7D9FF0028F9D070
:10335000204670BD0038014010B5002821D0114B27
:103360000022001F196803E0814203D80A46496819
:103370000029F9D152B11368841A9C4204D1006823
:1033800018441060104602E0506000E0186039B147
:1033900002680B1A934203D10B681A440260496811
:1033A000416010BDA0000020F0B503460D46164652
:1033B000002729460A2E03D0002008702846F0BDB9
:1033C00033B9302001F8010B002008702846F6E7D9
:1033D000002B03DA2D2001F8010B5B4242F2107240
:1033E0000DE093FBF2F404B937B104F1300001F8B9
:1033F000010B04FB123301270A2092FBF0F2002A92
:10340000EFDC002008702846D9E700004820FEF7CE
:1034100031FC4FF4A060FEF7B5FA4FF4E130FEF74F
:1034200031FEFEF7A7F9FFF73FF83BA0FFF7BEF824
:103430003DA0FFF7BBF847A0FFF7B8F84FA0FFF794
:10344000B5F856A0FFF7B2F8FDF7EEFE5DA15E48B5
:10345000FEF70EF818B15DA0FFF7A8F802E066A02D
:10346000FFF7A4F86EA26FA16F48FDF757FE18B1E1
:103470006EA0FFF79BF802E077A0FFF797F806E051
:103480007EA0FFF793F84FF4FA70FFF7EBFEFDF71D
:10349000D3FC0028F4D17FA0FFF788F847214FF430
:1034A000FA70FEF735FC00217F48FEF7F8FC32E0A9
:1034B0007E48B0F80004C00B10B372B67B48B0F879
:1034C0000004C0F30E04224678497948FCF74CFE0C
:1034D0000020774908557548B0F8000420F40040F2
:1034E0007249A1F800040846B0F800046FF30E001A
:1034F000A1F8000462B621466D48FEF74FFA00BFFE
:103500006C48007820B16CA0FFF750F8FFF7ECFD95
:10351000C820FFF7A7FECBE748656C6C6F2C2077BF
:103520006F726C64210D0A000D0A3D3D3D3D3D3D2D
:103530003D3D3D3D3D3D3D3D3D3D3D3D3D3D3D3DBB
:103540003D3D3D3D3D3D3D3D3D3D3D3D3D3D0D0A0E
:103550000000000053544D3332202B204553503887
:10356000323636204A534F4E20436F6D6D616E6484
:103570002048616E646C65720D0A000053757070AE
:103580006F7274656420646576696365733A204C74
:1035900065642C204D6F746F720D0A003D3D3D3DFA
:1035A0003D3D3D3D3D3D3D3D3D3D3D3D3D3D3D3D4B
:1035B0003D3D3D3D3D3D3D3D3D3D3D3D3D3D3D3D3B
:1035C0000D0A000030000000380000200D0A53757D
:1035D000627363726962656420746F204D51545444
:1035E00020746F70696320737563636573736675A8
:1035F0006C6C79210D0A00000D0A4661696C6564E6
:1036000020746F2073756273637269626520746FD2
:10361000204D51545420746F706963210D0A0000CD
:103620003031000061610000000000200D0A50757B
:10363000626C6973686564204D515454206D6573E4
:1036400073616765207375636365737366756C6C0E
:1036500079210D0A000000000D0A4661696C65645D
:1036600020746F207075626C697368204D515454DA
:10367000206D657373616765210D0A0044485431FC
:103680003120436865636B204572726F72210D0AA9
:1036900000000000444854313120436865636B20CA
:1036A0004F4B210D0A00000000040040740500206B
:1036B000AC0000204C0000200D0A52656164696E68
:1036C0006720444854313120646174612E2E2E0DE0
:1036D0000A000000F0B50B30154D20F00701002462
:1036E000144A0FE003688B420BD38B4205D95E1A54
:1036F00043184768C3E9006700E04368136002C0ED
:1037000004E0021D10680028ECD12046002802D1F8
:10371000286808B10020F0BD064A07481060074A33
:10372000121A22F00702C0E9002401202860D7E71E
:10373000A4000020A00000207C090020780B0020BD
:103740002DE9F04705460C4620785B2804D0264832
:1037500004600020BDE8F0870520E860601C01F0EF
:10376000C9F8044620785D2801D1601CF2E7FFF714
:1037700071FC0646A860A86808B90020EAE7204660
:1037800001F0B8F880464146304600F069FB074634
:1037900001F0B0F804460CB90020DBE717E0FFF7B2
:1037A00059FC071E00D1D5E737607E603E46601C9D
:1037B00001F0A0F881464946304600F051FB8046B2
:1037C00001F098F804460CB90020C3E700BF207848
:1037D0002C28E4D020785D2801D1601CBAE702488B
:1037E00004600020B6E7000090000020014600229F
:1037F0000878302806DB0878392803DC0878303868
:10380000024415E00878412806DB0878462803DCE6
:103810000878373802440BE00878612806DB08781E
:10382000662803DC08785738024401E0002070471E
:103830001201491C0878302806DB0878392803DC97
:1038400008783038024415E00878412806DB08780B
:10385000462803DC0878373802440BE008786128F2
:1038600006DB0878662803DC08785738024401E054
:103870000020DCE71201491C0878302806DB0878B4
:10388000392803DC08783038024415E008784128EC
:1038900006DB0878462803DC0878373802440BE05A
:1038A0000878612806DB0878662803DC0878573832
:1038B000024401E00020BAE71201491C08783028D0
:1038C00006DB0878392803DC08783038024415E034
:1038D0000878412806DB0878462803DC0878373862
:1038E00002440BE00878612806DB0878662803DCD0
:1038F00008785738024401E0002098E7104696E720
:103900002DE9F047074627B91BA0FEF74FFEBDE89B
:10391000F0873846FFF7AEFB06463EB9FFF794FB4B
:10392000054629461BA0FEF741FEF0E7B4681BE000
:10393000D4F82080D4F810901B4D09E04046296847
:10394000FCF759FC18B94846A968884703E00C35CC
:1039500028680028F2D100BF286818B9414613A092
:10396000FEF724FE246800BF002CE1D13046FFF7AB
:103970003FFB00BFCBE70000B4EDCEF33AB4ABC8D9
:10398000EBB5C44A534F4ED7D6B7FBB4AECEAABFA1
:10399000D50A00004A534F4EB8F1CABDB4EDCEF37C
:1039A0003A25730A0000000050000020556E6B6E2F
:1039B0006F776E206465766963653A2025730D0A1A
:1039C000000000002DE9F04F8BB083468A460020AE
:1039D000044605460026674F00218846894609901F
:1039E000012008909AF800002D2802D1624F0AF1B8
:1039F000010A9AF80000302801D10AF1010A9AF868
:103A00000000312822DB9AF8000039281EDC00BFB4
:103A10001AF8011BA1F13000FCF7AFFD0022574B53
:103A2000CDE9060120462946FCF735FDCDE9040124
:103A3000DDE90623FCF788FC04460D469AF80000F1
:103A4000302803DB9AF800003928E1DD9AF80000FD
:103A50002E2830D19AF8010030282CDB9AF801008A
:103A6000392828DC0AF1010A00BF1AF8011BA1F16C
:103A70003000FCF782FD0022404BCDE906012046D4
:103A80002946FCF708FDCDE90401DDE90623FCF732
:103A90005BFC04460D460022364B40464946FCF787
:103AA000F4FC804689469AF80000302803DB9AF837
:103AB00000003928D9DD9AF80000652803D09AF86B
:103AC0000000452823D10AF1010A9AF800002B28AA
:103AD00002D10AF1010A08E09AF800002D2804D169
:103AE0004FF0FF3008900AF1010A08E01AF8010BC4
:103AF0003038099901EB810100EB410009909AF8F7
:103B00000000302803DB9AF800003928EEDDDDE9FB
:103B1000082101FB02F0FCF730FD42464B46CDE99F
:103B20000001FCF711FC02460B46CDE90201002022
:103B3000124900F0F3F922462B46CDE90601304642
:103B40003946FCF7A8FCCDE90401DDE90623FCF7C2
:103B5000A2FC04460D46CBE9064520462946FCF763
:103B60001DFDCBF814000320CBF80C0050460BB021
:103B7000BDE8F08F0000F03F0000F0BF00002440DF
:103B80002DE9F04706460C4620787B2804D04048B3
:103B900004600020BDE8F0870620F060601C00F0A3
:103BA000A9FE044620787D2801D1601CF2E7FFF7CA
:103BB00051FA0546B060B06808B90020EAE720462F
:103BC00000F098FE80464146284600F063F807461C
:103BD00000F090FE04460CB90020DBE7286928625B
:103BE0000020286120783A2803D02948046000206A
:103BF000D0E7601C00F07EFE80464146284600F07B
:103C00002FF9074600F076FE04460CB90020C1E704
:103C100031E0FFF71FFA071E00D1BBE72F607D6080
:103C20003D46601C00F066FE81464946284600F08D
:103C300031F8804600F05EFE04460CB90020A9E78A
:103C4000286928620020286120783A2803D010488B
:103C5000046000209EE7601C00F04CFE814649464F
:103C6000284600F0FDF8804600F044FE04460CB9FA
:103C700000208FE700BF20782C28CAD020787D282C
:103C800001D1601C86E702480460002082E7000042
:103C9000900000202DE9F05F8346884608F101047A
:103CA000002798F80000222805D06A48C0F8008054
:103CB0000020BDE8F09F04E014F8011B5C2900D14E
:103CC000641C2078222804D0207810B1781C071EAC
:103CD000F2D1781C6049096888478146B9F1000F24
:103CE00001D10020E5E708F101044D469EE020786F
:103CF0005C2804D014F8010B05F8010B96E0641C55
:103D00002078722818D006DC622809D066280BD0EB
:103D10006E287DD10CE0742812D07528F9D113E0FB
:103D2000082005F8010B7FE00C2005F8010B7BE073
:103D30000A2005F8010B77E00D2005F8010B73E070
:103D4000092005F8010B6FE0601CFFF74FFD0646E8
:103D5000241DB6F55C4F02D3B6F5604F00D306B90B
:103D600062E0B6F5584F1CD3B6F55C4F19D26078B7
:103D70005C2802D1A078752800D055E0E01CFFF740
:103D800035FD8246A41DBAF55C4F02D3BAF5604FEB
:103D900000D349E0C6F30901504661F39F2000F5C6
:103DA00080360427802E01D2012708E0B6F5006F87
:103DB00001D2022703E0B6F5803F00D203273D443D
:103DC000012F20D0022F15D0032F0AD0042F24D189
:103DD00006F0BF0040F08001681E05460170B6097C
:103DE00000BF06F0BF0040F08001681E054601706C
:103DF000B60900BF06F0BF0040F08001681E05460E
:103E00000170B60900BF1548C05D3043C1B200E083
:103E100006E0681E0546017000BF00BF3D4403E098
:103E2000207805F8010B00BF00BF641C2078222811
:103E300003D0207800287FF45AAF00202870207823
:103E4000222800D1641CCBF810900420CBF80C0081
:103E500020462EE7900000209400002052490008E0
:103E600070B505460C460CB9002070BD042224A193
:103E70002046FCF7CEF918B90220E860201DF4E7CF
:103E8000052221A12046FCF7C4F918B90020E860FA
:103E9000601DEAE704221EA12046FCF7BAF920B90A
:103EA0000120E8606861201DDFE72078222804D126
:103EB00021462846FFF7EEFED7E720782D2805D0CB
:103EC0002078302807DB2078392804DC2146284672
:103ED000FFF778FDC9E720785B2804D12146284602
:103EE000FFF72EFCC1E720787B2804D12146284625
:103EF000FFF746FEB9E7084804600020B5E7000078
:103F00006E756C6C0000000066616C7365000000EB
:103F10007472756500000000900000202DE9F04DDE
:103F20001D460C4698B0174621F0004123F000438F
:103F3000002814BF4FF0010C4FF0000C0CEB440CA8
:103F4000FE4A0CEB02064FEA620C66452BD33E009C
:103F500018BF012606EB45061644F94A964222D3BD
:103F6000F84A53EA070C02D0944205D148B918B078
:103F700000201146BDE8F08D002808BF4FF0000C6E
:103F800001D04FF0010C0CEB440212F5001F0AD8CF
:103F9000002F14BF4FF0010C4FF0000C0CEB45024A
:103FA00012F5001F07D918B03A462B462146BDE846
:103FB000F04DFEF791BB0022DFF88CA3002CB8BFB8
:103FC000534526DADFF884C36345A8BF022220DA0E
:103FD000DFF870C39C451CDCDFF874C30CEB235C7A
:103FE000BCF1140F08DDCCF1340627FA06FC0CFAFC
:103FF00006F6BE420DD108E05FB9CCF1140623FAF3
:1040000006FC0CFA06F69E4203D10CF00102C2F146
:10401000020251EA000C19D1002D17DA002C18BF4A
:10402000022A01D0012A07D00220FEF77DFB18B03A
:10403000BDE8F04DFEF748BB0220FEF775FBFEF72A
:1040400043FB18B081F00041BDE8F08DB7F1000CE2
:104050006CD1534525D104F1804212F5801201BF85
:1040600000280020B74918B008BFBDE8F08DB5485A
:10407000884207DC002DA1BF6046294618B0BDE884
:10408000F08D07E0281E05DA80F0004118B0604688
:10409000BDE8F08DAF497944D1E9000118B0BDE821
:1040A000F08DDFF8A0C2634525D1002D1FDA19B1CC
:1040B000514512D1D8B909E0002840F0EC82A24A5B
:1040C000214618B062F31E01BDE8F08D00202146A4
:1040D00018B060F31E01BDE8F08D08DA18B0234671
:1040E000BDE8F04D024600206146FCF798BB18B0D1
:1040F0002146BDE8F08D514518DAB5F1804F0DD05D
:10410000A5F1005CBCF1FF5C10D1B4F1000C0DDB3B
:1041100018B06146BDE8F04D00F0F5BB234618B07D
:104120000246BDE8F04D1946FCF7B5B9060024F08B
:10413000004C3BD1D9B1514533D1002C06DD002DC7
:10414000A1BF0020514618B0BDE8F08D002C01DD64
:10415000002D1BDB002C13DA002D11DB012A4FF0A0
:10416000000014BF78497C4918B0BDE8F08D022AE0
:1041700018BF002C0AD0012A08D1002C06DA0AE068
:10418000002CB8BF002D11DA012A04D0002018B08D
:104190000146BDE8F08D18B000204FF00041BDE8A9
:1041A000F08DA1F14050B0F17F601AD0012000EBFA
:1041B000E47050EA020421D0624C521E4FF0000B12
:1041C000104304BF4FF0000B644C654883427CDD14
:1041D000644A654893421FDD884217DB002D25DBCA
:1041E00037E0002C00DA4AB1022A0CBF01204FF060
:1041F000FF3018B0BDE8F04DFCF7BFB90120FEF765
:1042000093FA18B0BDE8F04DFEF768BA4D4A8A42FD
:1042100002DC002D0ADC1CE0814202DA002D18DAF3
:1042200004E0484B994220DD002D12DD0220FEF70C
:104230007BFAFEF759FA05460E46002253465846C9
:104240002146FCF728F918B066F31E012846BDE8A0
:10425000F08D0220FEF768FAFEF74EFA0A46214674
:1042600018B062F31E01BDE8F08D002230466146B1
:10427000FCF70BF980460E466FF00102FCF73EFB9F
:104280004FF05532394BFCF703F942463346FCF701
:1042900002F90022364BFCF7FBF8824642463346D1
:1042A000049110461946FCF7F6F85246049BFCF7B9
:1042B000F2F88A4600904FF0C0422E4B40463146FD
:1042C000FCF7E9F82C4A2B4B00E027E0CDE906018A
:1042D00051460098FCF7DFF882460191274A284BA7
:1042E00040463146FCF7D7F85246019BFCF7CDF823
:1042F00082460B4602460591DDE90601FCF724F8EB
:10430000DDE90623002688463046FCF7BEF8524613
:10431000059BFCF7BDF8024600F07EB90020B1F520
:10432000801F07DA352230466146FCF7E7FA064679
:104330006FF0340000EB215024E00000FFFF1F006D
:10434000FFFF0F000000F03F0000F07F000040433F
:1043500001FCFFFF4E0900000000F0FF0000F0BF6D
:104360000000E0410000F043FFFFEF3F5555D53F0F
:104370000000E03F4715F73FFE822B6544DF5DF804
:104380000BAE543EA0F2FF300190C1F3130040F099
:104390007F6141F040510291FE498842D8BF002020
:1043A00004DDFD498142C8BF012001DD0D9008E018
:1043B00000200D900198401C01900298A0F58010FB
:1043C00002900299F54878440B910D9900EBC100D9
:1043D000D0E900230F9330460A920B99FCF755F869
:1043E000CDE90601DDE90A2130460F9BFBF7ACFF62
:1043F00002460B460020EA49FCF711FA05910246F5
:104400000B460090DDE90601FCF745F81490E548FD
:104410008A464FF0000878440299006812904FF0E5
:10442000005040EA61010D980F9B01EB804000F5C0
:10443000002109910A9A1298FCF727F832460B9B43
:10444000FCF726F842465346FCF725F8064602914B
:1044500040465146099B129AFCF71DF8DDE90623F8
:10446000FCF716F83246029BFCF70FF8059B009A02
:10447000FCF711F80091149A04905346104619461F
:10448000FCF709F806460246C7480B46029106218A
:104490007844FEF7C3F8CDE90510029B324610467A
:1044A0001946FBF7F8FFDDE90532FBF7F4FF05914C
:1044B0000646534640461946149AFBF745FF009BB3
:1044C000049AFBF7E8FF3246059BFBF73DFFCDE979
:1044D00005104246534610461946FBF7DCFF002202
:1044E000B24B02910A90FBF72FFFDDE90532FBF793
:1044F0002BFF0E464246AD4B4046FBF7C6FF029BE4
:104500000A9AFBF7C2FFDDE90532FBF7C1FF42461D
:1045100002910A90334610465146FBF7BCFFCDE9A5
:1045200006015346149A02990A98FBF7B4FF8A468B
:1045300002903346424600990498FBF7ACFF53467D
:10454000029AFBF701FF82460B4602460591DDE920
:104550000601FBF7F9FEDDE9062300208846064642
:10456000FBF793FF5246059BFBF792FF82460991AA
:104570004FF060428E4B30464146FBF78CFF049073
:1045800006918C4A8A4B50460999FBF784FF824674
:104590000291894A894B30464146FBF77CFF5246DF
:1045A000029BFBF7D1FE864B7B440D9A03EBC203C3
:1045B000D3E90023FBF7C8FE0E9007910198FBF7A3
:1045C000DCFF0591DDE9061382460E9A0498FBF79D
:1045D000BBFE7C4A7A440D9B02EBC303D3E9002364
:1045E00000930292FBF7B0FE5246059BFBF7ACFE30
:1045F0000026884652463046059BFBF746FF009B47
:10460000029AFBF742FF069B049AFBF73EFF079BCB
:104610000E9AFBF73DFF024600200B4602903846FB
:104620002946FBF738FF824601912B46384619464A
:10463000029AFBF72AFF32464346FBF72CFF52460D
:10464000019BFBF781FE07468A46324643462946D0
:104650000298FBF720FF05460E463A465346FBF705
:1046600073FE594A8846914221DBA8EB020353EAC4
:10467000000210D12A463346FBF707FFCDE90401BB
:10468000524A534B38465146FBF75EFEDDE90423A0
:10469000FBF7A4FF21D20220FEF746F8FEF724F82C
:1046A0000A46214618B062F31E01BDE8F08D494B61
:1046B00028F000429A4210D3474A08EB020353EA1B
:1046C00000027FF4C6AD2A463346FBF7DEFE3A46CB
:1046D0005346FBF783FF7FF6BCAD0022019228F022
:1046E00000403E493E4A01EB2051824223DA481CF9
:1046F0004FF4801121FA00F040443A4AC0F30A51C5
:104700007A44394BA1F2FF31CB4020EA0303C0F3D6
:10471000130040F48010C1F11401C84012680190E8
:10472000B8F1000FBCBF4042019028463146FBF76C
:10473000ACFE05460E462A46334638465146FBF740
:1047400003FE4FF000084246284B40460591FBF718
:10475000A2FECDE90601264A264B40460599FBF705
:104760009AFE009102902A46334640460599FBF78F
:104770008CFE3A465346FBF78BFE1F4A1F4BFBF756
:104780008AFE009B029AFBF7DFFD07468846024639
:104790000B4635E08E9803007AB60B0096050000B4
:1047A0000000F03FCE050000FC04000000000840BF
:1047B00009C7EE3FFD033ADCF5015B14E02F3EBE76
:1047C000D40300009803000000009040FE822B6597
:1047D0004715973C00CC904000346F3F01FCFFFF31
:1047E0000000E03FE4020000FFFF0F00432EE63F21
:1047F000396CA80C615C20BEEF39FAFE422EE63F10
:10480000DDE90601FBF7A0FDDDE9062305460E46BE
:10481000FBF73BFE3A464346FBF73AFE0F462A4675
:104820003346009010461946FBF735FE8246024695
:104830002E4888460B4605217844FDF7EFFE524688
:104840004346FBF728FE2A463346FBF721FE804607
:104850008A463B4628463146009AFBF71CFE3B46FB
:10486000009AFBF771FD0691009000224FF0804303
:1048700040465146FBF709FE0F460C904246534610
:1048800028463146FBF707FE3B460C9AFBF7C7FF6D
:10489000069B009AFBF7F9FD2A463346FBF7F5FD28
:1048A0000022134BFBF7F4FD054601980E4601EB81
:1048B00000510815002810DC28463146019AFCF703
:1048C0001DF8FDF797FE042808BFFDF715FF2846E1
:1048D0003146019AFCF712F805460B4618B02A46F5
:1048E00058462146BDE8F04DFBF7D5BD84010000D8
:1048F0000000F03F00E0401C20B1017811B10178C8
:104900002029F8DD70472DE9F04106460F46FCF7F7
:10491000D3F9041E0D4618BF0120284320F00040A3
:10492000C0F17F6000F1E040C00F0ED0301C18BF16
:104930000120384320F00040C0F17F6000F1E040EA
:10494000C00F04BF0120FDF7EFFE20462946BDE859
:10495000F0810000C0E0F0F8FC0000000000000062
:10496000000000000000F03F000000000000F83FE1
:1049700000000000000000000000004003B8E23F1B
:10498000000000000000000006D0CF43EBFD4C3ECD
:10499000033333333333E33FFFAB6FDBB66DDB3FC2
:1049A0004D268F515555D53F01411DA96074D13F0A
:1049B00065DBC9934A86CD3FEF4E454A287ECA3F04
:1049C0003E5555555555C53F93BDBE166CC166BF86
:1049D0002CDE25AF6A56113FF16BD2C541BDBBBE7F
:1049E000D0A4BE726937663E0000000000000000DF
:1049F000DDDDDDDDDCBBBBDDDDDDDDDDDDDDDDDD2C
:104A0000988888888888888877777777778888886B
:104A10008555555666666666666666666668888803
:104A20008333333222222222222222222228888DFC
:104A30004C6564004D6F746F720000005C4A0008A2
:104A400000000020AC00000008270008084B000808
:104A5000AC000020CC0E0000182700086D717474A3
:104A60005F6465762F64656D6F312F7265706F724C
:104A700074000000000000006D7174745F6465765E
:104A80002F64656D6F312F7265706F727431000025
:104A900000000000746F706963313038000000005E
:104AA000000000000000000001000000304A000883
:104AB00000000000F9170008344A00080100000057
:104AC0008118000800000000020000000000000043
:104AD00000000000010203040102030406070809A4
:104AE00002040608000000000000000000000000B2
:104AF000D53600085933000800000000000000000F
:084B00000000000000000000AD
:0400000508000131BD
:00000001FF
